:020000040800F2
:1000000000000520A9BF00086B8100086D81000871
:100010006F810008718100087381000800000000F2
:10002000000000000000000000000000E1310008B6
:100030007581000800000000813200087781000807
:10004000F9BF0008F9BF0008F9BF0008F9BF0008B0
:10005000F9BF0008F9BF0008F9BF0008F9BF0008A0
:10006000F9BF0008F9BF0008F9BF0008F9BF000890
:10007000F9BF0008F9BF0008F9BF0008F9BF000880
:10008000F9BF0008F9BF0008F9BF0008F9BF000870
:10009000F9BF0008F9BF0008F9BF0008F9BF000860
:1000A000F9BF0008F9BF0008F9BF0008F9BF000850
:1000B000F9BF0008F9BF0008F9BF0008F9BF000840
:1000C000F9BF0008F9BF0008F9BF0008F9BF000830
:1000D000F9BF000881810008F9BF0008F9BF0008D6
:1000E000F9BF0008F9BF0008F9BF0008F9BF000810
:1000F000F9BF0008F9BF0008F9BF0008F9BF000800
:10010000F9BF0008F9BF0008F9BF0008F9BF0008EF
:10011000F9BF0008F9BF0008F9BF00089181000885
:10012000F9BF0008A1810008B1810008F9BF0008EB
:10013000F9BF0008F9BF0008F9BF0008F9BF0008BF
:10014000F9BF0008F9BF0008F9BF0008C181000825
:10015000F9BF0008F9BF0008F9BF0008D181000805
:10016000F9BF0008F9BF0008F9BF0008F9BF00088F
:10017000F9BF0008F9BF0008F9BF0008000000003F
:10018000F9BF0008F9BF0008F9BF0008F9BF00086F
:10019000F9BF0008F9BF0008F9BF0008F9BF00085F
:1001A000F9BF0008F9BF0008F9BF0008F9BF00084F
:1001B000F9BF0008F9BF0008F9BF0008F9BF00083F
:0801C000F9BF0008F9BF0008B7
:1001D00010B5054C237833B9044B13B10448AFF381
:1001E00000800123237010BDC80000200000000023
:1001F000E0C900080C4B43B10C480D4910B5AFF3F2
:1002000000800C48036823B910BD0A48036833B95D
:100210007047094B002BF7D0BDE810401847064B3C
:10022000002BF5D0184700BF00000000E0C900080F
:10023000CC000020C80000200000000053B94AB9DB
:10024000002908BF00281CBF4FF0FF314FF0FF30DE
:1002500000F07AB9ADF1080C6DE904CE00F006F8B3
:10026000DDF804E0DDE9022304B070472DE9F04732
:100270008C460D460446089E002B51D18A421746F3
:100280006DD9B2FA82FEBEF1000F0BD0CEF1200C78
:1002900001FA0EF520FA0CFC02FA0EF74CEA050CF6
:1002A00000FA0EF44FEA174A250CBCFBFAF81FFAC5
:1002B00087F90AFB18CC45EA0C4508FB09F3AB4269
:1002C0000AD9ED1908F1FF3280F02381AB4240F2E8
:1002D0002081A8F102083D44ED1AA4B2B5FBFAF062
:1002E0000AFB105544EA054400FB09F9A14509D968
:1002F000E41900F1FF3380F00A81A14540F2078143
:1003000002383C44A4EB090440EA08400021002ED6
:1003100061D024FA0EF4002334607360BDE8F087E6
:100320008B4207D9002E54D0002186E821000846D0
:10033000BDE8F087B3FA83F1002940F08E80AB422C
:1003400002D3824200F2FA80841A65EB0305012091
:10035000AC46002E3FD086E81010BDE8F08712B9F9
:100360000127B7FBF2F7B7FA87FEBEF1000F34D1D1
:10037000EB1B3A0C1FFA87FC0121B3FBF2F8250CAA
:1003800002FB183345EA03450CFB08F3AB4207D9DF
:10039000ED1908F1FF3002D2AB4200F2D180804665
:1003A000ED1AA3B2B5FBF2F002FB105543EA054487
:1003B0000CFB00FCA44507D9E41900F1FF3302D27D
:1003C000A44500F2B8801846A4EB0C0440EA0840AB
:1003D0009DE731463046BDE8F087CEF1200405FAAE
:1003E0000EF307FA0EF720FA04F83A0C25FA04F493
:1003F00048EA0308B4FBF2F14FEA184502FB114446
:100400001FFA87FC45EA044501FB0CF3AB4200FAF6
:100410000EF409D9ED1901F1FF3080F08A80AB426A
:1004200040F2878002393D44EB1A1FFA88F5B3FB8E
:10043000F2F002FB103345EA034500FB0CF3AB423C
:1004400007D9ED1900F1FF386FD2AB426DD90238F0
:100450003D44EB1A40EA01418FE7C1F1200722FA3F
:1004600007F88B4005FA01F448EA030320FA07FE77
:100470004FEA134CFD404EEA040EB5FBFCF94FEA7F
:100480001E440CFB19551FFA83F844EA054509FB85
:1004900008F4AC4202FA01F200FA01FA08D9ED18A8
:1004A00009F1FF3043D2AC4241D9A9F102091D4400
:1004B0002D1B1FFA8EFEB5FBFCF00CFB10554EEA0F
:1004C000054400FB08F8A04507D9E41800F1FF3502
:1004D00029D2A04527D902381C4440EA0940A4EBA0
:1004E0000804A0FB02894C45C6464D4615D312D0E0
:1004F00056B1BAEB0E0364EB050404FA07F7CB40E0
:100500001F43CC40376074600021BDE8F087184677
:10051000F8E69046E0E6C245EAD2B8EB020E69EB97
:1005200003050138E4E72846D7E7404691E78146CE
:10053000BEE7014678E702383C4445E7084608E74D
:10054000A8F102083D442BE7704700BF7047704791
:1005500008B5032000F06CF8002000F02BF803F041
:1005600069FD002008BD0000034A1168034B1B7899
:100570000B441360704700BFA8400020000000201B
:10058000014B1868704700BFA840002038B50446EA
:10059000FFF7F6FF0546B4F1FF3F02D0044B1B788E
:1005A0001C44FFF7EDFF401B8442FAD838BD00BF62
:1005B0000000002000B589B000220146372000F07D
:1005C00049F8372000F076F8154B1A6C42F02002FB
:1005D0001A641B6C03F020030193019B02A903A87A
:1005E00001F0EAFB01F0C8FB43000E48A0FB032327
:1005F0009B0C013B0C480D4A026040F2E732C2609E
:10060000436000230361836002F0AAFC18B101205B
:1006100009B05DF804FB044802F024FBF8E700BFD2
:100620000038024083DE1B43AC4000200014004031
:100630000649CB6823F4E0631B041B0C000200F4A2
:10064000E0600343024A1A43CA60704700ED00E0CD
:100650000000FA0530B4144BDB68C3F30223C3F186
:100660000704042C28BF04241D1D062D13D9033BA9
:10067000012505FA04F4013C2140994005FA03F3F1
:10068000013B13401943002807DB0901C9B2074B9E
:10069000195430BC70470023EAE700F00F0009014D
:1006A000C9B2034B1954F4E700ED00E000E400E0A8
:1006B00014ED00E0420900F01F00012303FA00F0EE
:1006C000014B43F82200704700E100E00138B0F12F
:1006D000807F0AD2064B5860F021064A82F8231028
:1006E0000020986007221A6070470120704700BF01
:1006F00010E000E000ED00E0042805D0054A136892
:1007000023F0040313607047024A136843F00403A4
:100710001360704710E000E00368B3F1A04F00D011
:10072000704710B588B04FF4E0530393022304934D
:1007300000240594032306930A23079303A9104872
:1007400008F0CAFE0F4B5A6B42F080025A635A6B94
:1007500002F080020192019A5A6C42F480425A647B
:100760005B6C03F480430293029B224605214320E5
:10077000FFF770FF4320FFF79DFF08B010BD00BFDB
:10078000000002400038024008B5D0F8940206F09C
:1007900038FD08BD08B5D0F8940206F03BFD08BD51
:1007A00008B5D0F8940206F050FD08BD08B5D0F8A1
:1007B000940206F06CFD08BD90F8BC33012B01D00B
:1007C0000020704710B504461048C0F89442C4F8A1
:1007D000C0034FF0A0430360082383600323C3607A
:1007E0000023036102228261C36100F0BFFA40B9B5
:1007F000064800F0C2FF0146204606F0FFFC00203C
:1008000010BDDA2102480BF0D3F9F1E7EC400020EB
:100810001CCA000808B5D0F8C00300F074FF18B176
:10082000022803D0022008BD002008BD012008BD19
:1008300008B5D0F8C00300F07CFF18B1022803D03F
:10084000022008BD002008BD012008BD08B5D0F871
:10085000C00300F097FF18B1022803D0012008BDA3
:10086000002008BD022008BD08B5D0F8C00300F084
:1008700072FF18B1022803D0022008BD002008BD75
:10088000012008BD08B5D0F8C00300F070FF08BD16
:1008900010B584B0D0F8C003BDF8204002949DF894
:1008A0001C4001949DF81840009400F011FA20B10A
:1008B000022804D0022004B010BD0020FBE7012074
:1008C000F9E708B5D0F8C00300F03EFA18B10228E5
:1008D00003D0022008BD002008BD012008BD10B5CE
:1008E00084B0D0F8C0039DF824400394BDF82040A4
:1008F0000294079C01949DF81840009400F072FA4D
:1009000020B1022804D0022004B010BD0020FBE773
:100910000120F9E708B5D0F8C00300F021FF08BDB9
:1009200008B5C820FFF732FE002008BD10B4D0F88B
:10093000C03301EB8104E0000446184490F83B000A
:1009400048B901EB8101C800034483F8512000201D
:100950005DF8044B7047234483F85020F7E7D0F844
:10096000C03301EB8100C20010461A4492F83B20CC
:1009700032B901EB8101CA00134493F8510070476A
:10098000034493F85000704708B5FFF7FFFD08BD1A
:10099000124A12F0070F1ED0D11D21F00701C1F538
:1009A000705313440A460E4802600021416013440C
:1009B000083B23F007030B48036059601960991A3C
:1009C00051601360084B1960084B19604FF00042EA
:1009D000074B1A6070474FF47053E4E7E8000020BB
:1009E000F43C0020E4000020F03C0020EC3C00201F
:1009F000E83C002010B4134B1A6882421BD359689C
:100A00005C18A04203D1406801445960184641680F
:100A10004418A24213D10C4C2468A2420DD0526853
:100A2000114441601A6812680260984200D0186050
:100A30005DF8044B70471346DEE70460F5E702609B
:100A4000F3E700BFF43C0020E400002070B504464A
:100A500007F0A2FD3D4B1B68CBB13D4B1B681C4210
:100A600069D1BCB1083414F0070F13D024F0070487
:100A7000083404F007036BB14FF0500372B683F3F0
:100A80001188BFF36F8FBFF34F8F62B6FEE7FFF79A
:100A90007FFFE2E7002C50D02E4B1B689C424ED8C3
:100AA0002D4B1D6801E02B4615466A68944202D919
:100AB0002A68002AF7D1254A1268954241D01E685B
:100AC00008362A681A606B681B1B102B12D928196C
:100AD00010F0070F0AD04FF0500372B683F311885D
:100AE000BFF36F8FBFF34F8F62B6FEE743606C605A
:100AF000FFF780FF6A6817490B689B1A0B6017495C
:100B000009688B4201D215490B60114B1B681343D6
:100B10006B6000232B6007F0E7FD16F0070F12D083
:100B20004FF0500372B683F31188BFF36F8FBFF39A
:100B30004F8F62B6FEE70026EDE70026EBE70026C2
:100B4000E9E70026E7E7304670BD00BFE40000207B
:100B5000E83C0020EC3C0020F43C0020F03C00206D
:100B6000002834D038B50446A0F1080550F8042C0C
:100B7000174909680A420AD14FF0500372B683F34D
:100B80001188BFF36F8FBFF34F8F62B6FEE750F847
:100B9000080C50B14FF0500372B683F31188BFF3C5
:100BA0006F8FBFF34F8F62B6FEE722EA010244F86F
:100BB000042C07F0F1FC54F8041C064A13680B449B
:100BC00013602846FFF716FF07F08EFD38BD70470B
:100BD000E83C0020EC3C002010B582B01B4B1A6CA6
:100BE00042F080521A641B6C03F080530193019B06
:100BF000174A136843F480331360FFF7C1FC0446BF
:100C0000134B5B6813F4803F08D1FFF7B9FC001B5E
:100C1000B0F57A7FF4D9032002B010BD0C4A1368F6
:100C200043F400331360FFF7ABFC0446084B5B68EA
:100C300013F4003F07D1FFF7A3FC001BB0F57A7F48
:100C4000F4D90320E8E70020E6E700BF00380240BF
:100C500000700040F8B50668346A04F00F07C4F36A
:100C60004343C4F30A14022B2ED16CB307EB870263
:100C7000D3000344596C39B305462246304608F088
:100C8000D7FDBA003A44D3002B445A6C22445A642C
:100C9000DA6C2244DA6406EB4713D3F810150B4ADA
:100CA0000A408AB1D3F8002522F0804242F0004287
:100CB000C3F80025BB00D919CA002A4492F8503065
:100CC00083F0010382F85030F8BD00BF0000F81F28
:100CD0002DE9F04184B09DF828709DF82CE0BDF816
:100CE00030C090F89042012C03D1022004B0BDE83E
:100CF000F0810546012085F8900288004618F4002E
:100D00002C44002684F83D6084F83830A4F840C0B4
:100D100084F8391084F83FE002F07F0884F83A80C4
:100D20004FEAD21884F83B800844C4002C4484F86D
:100D30003C70CDF808C0CDF804E00097286808F0B2
:100D40006DFE85F89062D1E790F89032012B01D1C9
:100D50000220704710B50446012380F890320068E5
:100D600008F0D6FE002084F8900210BD002837D08D
:100D7000F0B58BB00646032380F89132FFF7CCFC28
:100D8000306808F0FFFC344654F810EB6D460FCC89
:100D90000FC50FCC0FC594E8030085E80300371D8D
:100DA00097E80E00704608F0A9FC0121306808F0B1
:100DB000EFFC344654F810EB6D460FCC0FC50FCC4A
:100DC0000FC594E8030085E8030097E80E0070461D
:100DD00008F0A8FD012386F8913200200BB0F0BD89
:100DE00001207047F8B59DF81870BDF820608D009F
:100DF0000D44EC00044484F83B2084F83F306FB984
:100E000001EB8105EC000444032584F84250032BD8
:100E100000F29580DFE803F00A8C2E5D01EB81057E
:100E2000EC000444022584F84250F0E7012F08BF8B
:100E3000002A40F0848036B901EB8102D3000344DC
:100E4000012283F8512001EB8102D300034493F87F
:100E500051303BB901EB8102D3000344002283F8F7
:100E600042206CE001EB8102D3000344022283F8AC
:100E7000422064E0B2B901EB8102D300034493F84D
:100E800051303BB901EB8102D3000344002283F8C7
:100E9000422054E001EB8102D3000344022283F894
:100EA00042204CE001EB8102D300034493F8503020
:100EB0003BB901EB8102D3000344002283F84220B6
:100EC0003DE001EB8102D3000344022283F842207B
:100ED00035E0B2B901EB8102D300034493F85130FD
:100EE0003BB901EB8102D3000344002283F8422086
:100EF00025E001EB8102D3000344022283F8422063
:100F00001DE001EB8102D300034493F850303BB95C
:100F100001EB8102D3000344002283F842200EE05B
:100F200001EB8102D3000344022283F8422006E051
:100F300001EB8102D3000344002283F842208A009F
:100F40005418E3000344079C5C649E64002483F807
:100F50005C40DC6483F8391083F85D401144CB00B9
:100F600003F13801027C0144006808F04FFEF8BD2F
:100F700030B583B005460468D4F840340193D4F802
:100F800040340093009B23F02E030093019B13F049
:100F9000020F07D0019B13F0010F25D1009B43F0F6
:100FA00002030093019B13F0080F10D0009B43F045
:100FB00008030093019B13F0040F31D0AB69022B9F
:100FC00019D0EB68032B26D02846FFF7E3FB019BE3
:100FD00013F0200F03D0009B43F020030093009BED
:100FE000C4F8403403B030BDA36923F00053A361BB
:100FF000FFF7D0FBD2E7019B03F4C023B3F5802FAA
:1010000004D00121286808F02FFCDDE702212868C0
:1010100008F02AFCD8E74EF66022C4F80424D3E78F
:10102000D4F8403423F02E03C4F840342A6893697E
:1010300043F000539361CAE7F8B506460D460768CA
:1010400007EB411707F5A064A36813F0040F3AD02B
:101050000423A360E36843F00203E360A36813F48E
:10106000007F66D1A36813F0010F00F08B80336915
:1010700063B1AB005919CA003244916C2269C2F3C2
:101080001202891A2B44DA003244D164AA002A449D
:10109000D3003344012283F85D2000219965A260CA
:1010A00093F83F30022B18BF8B424ED0032B57D002
:1010B000AB005919CA00324492F8503083F0010352
:1010C00082F85030F8BDA36813F0200F02D020231F
:1010D000A360C3E7A36813F0080F17D1A36813F444
:1010E000806FBBD0E36843F00203E360006808F060
:1010F0000FFD1023A36005EB8502D30033440822C3
:1011000083F85D204FF48063A360A7E7E36843F0B2
:101110000203E36001EB8102D3000344052283F85C
:101120005D201023A3600823A360006808F0F0FC92
:1011300094E7E36843F00203E3602946306808F06F
:10114000E7FC4FF40073A360F8BDE36843F00203CB
:10115000E3602946306808F0DBFC1023A360A7E7B2
:10116000D7F8003543F00053C7F8003505EB85028A
:10117000D3003344012283F85C2029463046FFF730
:1011800015FB95E7A36813F0020F62D0E36823F024
:101190000203E36005EB8502D300334493F85D302E
:1011A000012B20D0052B32D0082B18BF062B3ED1A7
:1011B000AA002A44D30033449A6D511C9965032A2E
:1011C0002DD9AA002A44D300334400229A65042270
:1011D00083F85C20D7F8003523F0804343F00043C8
:1011E000C7F8003506E005EB8502D3003344012241
:1011F00083F85C200223A36005EB8502D30033440F
:1012000093F85C2029463046FFF7D0FAF8BD05EB8D
:101210008502D3003344052283F85C20EAE705EB1E
:101220008502D3003344022283F85C20D2E7032BEB
:10123000E0D105EB8502D3003344022283F85C2021
:10124000D7F8003523F0804343F00043C7F800355A
:10125000D0E7A36813F0800F1BD1A36813F0100F21
:1012600016D005EB8502D3001A46334493F83F307D
:10127000032B26D0022B18BF002B07D105EB8502CC
:10128000D300334400229A6533696BB31023A36003
:10129000F8BDE36843F00203E360AB005919CA00EC
:1012A0003244916D013191652B44DA0032440623BA
:1012B00082F85D302946306808F02AFC8023A3605C
:1012C000F8BDAB003244002191652B44DA00324472
:1012D000032382F85D30E36843F00203E3602946AC
:1012E000306808F015FCD1E705EB8502D3003344E4
:1012F000032283F85D20E36843F00203E36029469C
:10130000306808F005FCC1E7F8B5036803EB41134A
:1013100003F5A064A26812F0040F11D10E46054631
:10132000A26812F0200F26D02023A36001EB8102D7
:10133000D3001A46034493F83D30012B07D0F8BD83
:101340000423A360E36843F00203E360F8BD8B006D
:101350000244002182F83D103344DA0002440223A3
:1013600082F85C30E36843F00203E36031460068D2
:1013700008F0CEFBF8BDA26812F0400F34D1A2688D
:1013800012F4007F4AD1A26812F0010F51D1A26875
:1013900012F0080F62D1A26812F0100F6FD08A000D
:1013A0000A44D300034400229A65032283F85D2097
:1013B00093F83D306BB901EB8102D300034493F8FD
:1013C0003C3033B901EB8102D3000344012283F89E
:1013D0003D20E36843F00203E3603146286808F0EB
:1013E00097FB1023A360F8BD8B005918CA00024474
:1013F000042182F85D10012182F83D103344DA00A7
:10140000024400239365E36843F00203E36031463E
:10141000006808F07DFB4023A360F8BDE36843F05B
:101420000203E360006808F073FB4FF40073A360ED
:10143000F8BD8F007A18D300034400229A65E36850
:1014400043F00203E360006808F062FB0123A3603D
:10145000B919C800284480F85D30F8BD0823A3609E
:10146000E36843F00203E360006808F051FB06EB19
:101470008601C8002844052380F85D30F8BDA268C5
:1014800012F0800F3AD1A26812F4806F47D1A2689F
:1014900012F0020F3FF453AFE26822F00202E26062
:1014A00001EB8101CA001146024492F85D20012A35
:1014B00049D0032A66D0042A6CD0052A72D0082AA3
:1014C00018BF062A48D1B1003144CA000244916DC8
:1014D000481C906503296DD9B1003144CA002A44E3
:1014E00000219165042182F85C10D3F8002522F0D8
:1014F000804242F00042C3F800252DE0E36843F04B
:101500000203E360006808F003FB06EB8601CB00F2
:101510002B44062283F85D208023A360F8BDE36896
:1015200043F00203E360006808F0F2FA1023A360BE
:101530004FF48063A36006EB8601CB002B440822A6
:1015400083F85D20F8BD0B460344012283F85C203C
:1015500093F83F30022B0CD00223A36006EB8602E7
:10156000D3002B4493F85C2031462846FFF71EF940
:10157000E5E60B46034493F8512082F0010283F81C
:101580005120E9E706EB8602D3000344022283F8E8
:101590005C20E1E706EB8602D3000344022283F8D5
:1015A0005C20D9E706EB8602D3000344052283F8CA
:1015B0005C20D1E706EB8601CA002A44022182F8AA
:1015C0005C1092E7F8B504460568284608F048F92B
:1015D000012800D0F8BD206808F03EF90028F9D0B5
:1015E000206808F039F910F4001F03D023684FF485
:1015F00000125A61206808F02FF910F4801F03D000
:1016000023684FF480125A61206808F025F910F021
:10161000806F03D023684FF080625A61206808F021
:101620001BF910F0020F02D0236802225A612068D1
:1016300008F012F910F0005F25D1206808F00CF9CD
:1016400010F0807F31D1206808F006F910F0080F03
:101650002FD1206808F000F910F0007F30D1206809
:1016600008F0FAF810F0100FB4D02268936923F054
:10167000100393612046FFF7EDFA2268936943F067
:1016800010039361A6E7D5F8403423F02E03C5F884
:1016900040342046FFF784F80121206808F0E4F880
:1016A00023684FF000525A61C7E72046FFF760FCFD
:1016B000C9E72046FFF768F8236808225A61C8E79F
:1016C000206808F020FA0746002604E0F1B2204620
:1016D000FFF71AFE0136A3689E420FD20123B340E2
:1016E0001F42F7D005EB4613D3F8003513F4004F33
:1016F000ECD0F1B22046FFF79FFCEBE723684FF0F8
:1017000000725A61ABE738B590F89032012B01D1E5
:10171000022038BD0446012580F89052006808F088
:101720002BF82946206808F0DCF8002084F89002A5
:1017300038BD90F89032012B01D10220704710B5CE
:101740000446012380F89032006808F019FB00205D
:1017500084F8900210BD08B5006808F0A5F808BD2F
:1017600001EB8101CB00184490F85C00704701EB5D
:101770008101CB001844C06C704708B5006808F0C0
:1017800048F908BD08B5006808F03AF908BD00003E
:10179000002800F0DB8170B582B00446036813F0C6
:1017A000010F3AD0A24B9B6803F00C03042B2BD003
:1017B0009F4B9B6803F00C03082B20D06368B3F5A4
:1017C000803F50D0002B54D1994B1A6822F48032BC
:1017D0001A601A6822F480221A606368002B5FD0B6
:1017E000FEF7CEFE0546924B1B6813F4003F14D162
:1017F000FEF7C6FE401B6428F5D90320ABE18C4BF5
:101800005B6813F4800FD9D0894B1B6813F4003F39
:1018100003D06368002B00F09B81236813F0020F54
:1018200064D0834B9B6813F00C0F4DD0804B9B68AA
:1018300003F00C03082B42D0E368002B79D07C4ADC
:10184000136843F001031360FEF79AFE0546784BD8
:101850001B6813F0020F63D1FEF792FE401B0228B3
:10186000F5D9032077E1724A136843F4803313609B
:10187000B3E7B3F5A02F09D06D4B1A6822F480327C
:101880001A601A6822F480221A60A6E7684B1A6868
:1018900042F480221A601A6842F480321A609CE78F
:1018A000FEF76EFE0546624B1B6813F4003FB4D092
:1018B000FEF766FE401B6428F5D903204BE15C4B24
:1018C0005B6813F4800FB7D1594B1B6813F0020FFC
:1018D00004D0E368012B01D001203CE1544A136895
:1018E00023F0F803216943EAC1031360236813F06E
:1018F000080F46D0636983B34D4A536F43F0010329
:101900005367FEF73DFE0546494B5B6F13F0020F30
:1019100037D1FEF735FE401B0228F5D903201AE126
:10192000434A136823F0F803216943EAC1031360B3
:10193000DCE73F4A136823F001031360FEF720FE43
:1019400005463B4B1B6813F0020FCFD0FEF718FE85
:10195000401B0228F5D90320FDE0354A536F23F0E0
:1019600001035367FEF70CFE0546314B5B6F13F026
:10197000020F06D0FEF704FE401B0228F5D9032013
:10198000E9E0236813F0040F7ED0294B1B6C13F0A1
:10199000805F31D1264B1A6C42F080521A641B6C66
:1019A00003F080530193019B0125224B1B6813F424
:1019B000807F23D0A368012B34D0002B3CD11C4B5B
:1019C0001A6F22F001021A671A6F22F004021A67D6
:1019D000A368002B46D0FEF7D3FD0646144B1B6FC1
:1019E00013F0020F4FD1FEF7CBFD801B41F288337D
:1019F0009842F3D90320AEE00025D6E70D4A1368DC
:101A000043F480731360FEF7BBFD0646094B1B6869
:101A100013F4807FCED1FEF7B3FD801B6428F5D987
:101A2000032098E0024A136F43F001031367CFE7E6
:101A30000038024000700040052B09D0484B1A6F57
:101A400022F001021A671A6F22F004021A67BFE738
:101A5000434B1A6F42F004021A671A6F42F00102F8
:101A60001A67B5E7FEF78CFD06463D4B1B6F13F07A
:101A7000020F08D0FEF784FD801B41F288339842A4
:101A8000F3D9032067E0F5B9A369002B62D0344A8B
:101A9000926802F00C02082A5FD0022B19D0304A5B
:101AA000136823F080731360FEF76AFD04462C4B25
:101AB0001B6813F0007F47D0FEF762FD001B022871
:101AC000F5D9032047E0264A136C23F080531364B2
:101AD000DAE7234A136823F080731360FEF750FDA2
:101AE00005461F4B1B6813F0007F06D0FEF748FD2C
:101AF000401B0228F5D903202DE0E369226A134335
:101B0000626A43EA8213A26A5208013A43EA024334
:101B1000E26A43EA026343F00053114A53601368D8
:101B200043F080731360FEF72BFD04460C4B1B68DB
:101B300013F0007F06D1FEF723FD001B0228F5D924
:101B4000032008E0002006E0002004E001207047A8
:101B5000012000E0002002B070BD0120FBE700BFC3
:101B600000380240F8B5254B9B6803F00C03042BAA
:101B700041D0082B01D02248F8BD204B5A6802F012
:101B80003F025B6813F4800F12D01C4B5968C1F3FD
:101B9000881100231B48A1FB0001FEF74FFB174BE8
:101BA0005B68C3F3014301335B00B0FBF3F0F8BDA6
:101BB000124B5B68C3F388131E4600275C010025A7
:101BC000E41A65EB0705A90141EA9461A001001B35
:101BD00061EB0501CB0043EA5073C400A01943EB4D
:101BE00007018B0243EA90538402204619460023E2
:101BF000FEF724FBD3E70348F8BD00BF00380240DE
:101C00000024F40040787D01002800F0A28070B527
:101C10000446524B1B6803F00F038B420CD24F4A11
:101C2000136823F00F030B431360136803F00F03D3
:101C3000994201D0012070BD236813F0020F17D024
:101C400013F0040F04D0464A936843F4E0539360C2
:101C5000236813F0080F04D0414A936843F46043AB
:101C600093603F4A936823F0F003A06803439360B6
:101C70000D46236813F0010F31D06368012B20D08B
:101C8000022B25D0364A126812F0020F63D0344975
:101C90008A6822F0030213438B60FEF771FC06464C
:101CA0002F4B9B6803F00C036268B3EB820F16D0D6
:101CB000FEF766FC801B41F288339842F0D903207E
:101CC00070BD274A126812F4003FE0D1012070BDB8
:101CD000234A126812F0007FD9D1012070BD1F4B3A
:101CE0001B6803F00F039D420CD21C4A136823F0BB
:101CF0000F032B431360136803F00F039D4201D0C1
:101D0000012070BD236813F0040F06D0144A9368B5
:101D100023F4E053E1680B439360236813F0080F4A
:101D200007D00F4A936823F46043216943EAC10353
:101D30009360FFF717FF0A4B9B68C3F30313094A2D
:101D4000D35CD840084B18600020FEF733FC00201D
:101D500070BD01207047012070BD00BF003C0240F3
:101D60000038024074CA00080C000020014B1868BB
:101D7000704700BF0C00002008B5FFF7F7FF044BC9
:101D80009B68C3F38223034AD35CD84008BD00BFDD
:101D90000038024084CA000808B5FFF7E7FF044B8B
:101DA0009B68C3F34233034AD35CD84008BD00BFED
:101DB0000038024084CA00080F2303600B4B9A6866
:101DC00002F0030242609A6802F0F00282609A68B0
:101DD00002F4E052C2609B68DB0803F4E053036145
:101DE000034B1B6803F00F030B6070470038024081
:101DF000003C024030B405682C6824F480242C6038
:101E0000046863608368402B05D0036899600368A9
:101E1000DA6030BC704703689A600368D960F8E7FD
:101E20000268D3B2103B0949A1FB03131B090849FF
:101E3000C95CC165032B04D8064B13408365806DD4
:101E40007047044B134004338365F8E7ABAAAAAA92
:101E50002CCA000800FCFFFF836A826992B9012B3B
:101E60000AD01BB1022B01D000207047C36A13F0C7
:101E7000807F2CD100207047C36AB3F1C07F28D087
:101E800000207047B2F5005F05D0022B29D9032B43
:101E900015D000207047032B03D8DFE803F01C04A3
:101EA0001C0A00207047C36A13F0807F15D1002000
:101EB0007047C36AB3F1C07F11D000207047C36A76
:101EC00013F0807F01D0012070470020704701206F
:101ED00070470120704701207047012070470120A2
:101EE000704701207047000070B50446FEF748FBBC
:101EF000002C5DD00546002384F83430022384F89A
:101F000035302268136823F00103136023681A68D0
:101F100012F0010F0AD0FEF733FB401B0528F5D95C
:101F200020236365032084F8350070BD1A682149B9
:101F300011406268A0680243E068024320690243DE
:101F400060690243A0690243E0690243206A0243D8
:101F50000A43616A042916D01A602668756925F05B
:101F60000705636A1D43042B12D075612046FFF7F5
:101F700057FFE26D3F23934083600020606501239B
:101F800084F8353070BDE16A206B01430A43E3E712
:101F9000A36A1D43E36A002BE7D02046FFF75CFFEE
:101FA0000028E2D040236365012084F8350070BD2D
:101FB000012070BD3F8010F000282ED038B50446B7
:101FC00090F83530DBB2022B01D1022038BD026817
:101FD000136823F001031360036800251D60036884
:101FE0005D6003689D600368DD6003681D610368D0
:101FF00021225A61FFF714FFE26D3F239340836073
:10200000E56325646564A564E5642565656584F814
:10201000355084F83450284638BD0120704738B513
:10202000856D90F83440012C31D0012480F8344083
:1020300090F83540E4B2012C04D0002380F834300D
:10204000022038BD0446022084F835000020606577
:102050002046FFF7CFFEE26D3F239340AB6022683E
:10206000136843F0160313602268536943F080033A
:102070005361236C23B12268136843F00803136093
:102080002268136843F001031360002038BD02206A
:1020900038BD90F83530DBB2022B03D08023436586
:1020A00001207047052380F835300268136823F05B
:1020B0000103136000207047F0B583B0044600238D
:1020C0000193724B1D68724BA3FB0535AD0A876DFA
:1020D0003E68C26D082393401E4210D003681A6800
:1020E00012F0040F0BD01A6822F004021A60C26DBD
:1020F00008239340BB60436D43F001034365E26DE9
:10210000012393401E4209D02268526912F0800FC9
:1021100004D0BB60636D43F002036365E26D04238A
:1021200093401E4209D02268126812F0020F04D0B8
:10213000BB60636D43F004036365E26D102393405D
:102140001E4224D02268126812F0080F1FD0BB6014
:1021500023681A6812F4802F0DD01B6813F4002F27
:1021600004D1236C9BB12046984710E0A36C73B157
:10217000204698470BE01A6812F4807F03D11A6852
:1021800022F008021A60236C0BB120469847E26DDA
:10219000202393401E4255D02268126812F0100F7F
:1021A00050D0BB6094F83530DBB2052B0ED02368DD
:1021B0001A6812F4802F33D01B6813F4002F2AD131
:1021C000636C002B3ED0204698473BE022681368A2
:1021D00023F0160313602268536923F080035361D0
:1021E000236CA3B12268136823F008031360E26D27
:1021F0003F239340BB60002384F83430012384F8EC
:102200003530236D002B3FD0204698473CE0A36C2F
:10221000002BE7D1EBE7E36BA3B12046984711E031
:102220001A6812F4807F09D11A6822F010021A602D
:10223000002384F83430012384F83530E36B0BB18C
:1022400020469847636DFBB1636D13F0010F17D003
:10225000052384F835302268136823F001031360E6
:10226000019B013301939D4204D323681B6813F043
:10227000010FF5D1002384F83430012384F8353080
:10228000E36C0BB12046984703B0F0BD0C00002072
:10229000B5814E1B406D704710B40B7803704B78BE
:1022A00043708B78CC7803EB042343800B79037164
:1022B0004B7943718B798371CB79C371082A16D915
:1022C0000B7A4A7A03EB022303818B7ACA7A03EBF7
:1022D000022343810B7B4A7B03EB022383818B7BAD
:1022E0008373CB7BC3730B7C03744B7C43745DF8AB
:1022F000044B70470B7803704B7843708B78837076
:10230000CB78C3700B7903714B7943718B798371EF
:10231000CB79C3710B7A037270470B7803704B78DB
:1023200043708B788370CB78C3700B794A7903EB59
:10233000022383808B79837170474378032B00D00D
:10234000704710B40478023CA242A8BF224694B25F
:10235000002305E0C218927801F8012B02339BB2EA
:10236000A342F7D300230B705DF8044BE8E730B5C8
:1023700083B00446037E013B0A2B00F23A81DFE87A
:1023800013F00B0015004400500077008500BA00E0
:10239000C600ED00FB002401427900F1100101F0BC
:1023A00055F802232376012003B030BD4179FEF7B2
:1023B000B1FA012803D004281DD00120F4E7227CC3
:1023C000E38A7BB112F0800F09D105232376002226
:1023D0000321D4F8C80302F0DFF80120E4E7032367
:1023E0002376F4E712F0800F02D107232376EEE77D
:1023F00009232376EBE70B23237600220321D4F86D
:10240000C80302F0C9F80120CEE7D0F8B833C38181
:1024100003798289816801F040F804232376012042
:10242000C2E70179FEF776FA0546012805D0052DA9
:102430000CD0042D12D00120B6E709232376002208
:102440000321D4F8C80302F0A7F8F0E70022032123
:10245000D4F8C80302F0A0F80320A5E70B232376E5
:1024600000220321D4F8C80302F096F801209BE76C
:102470004379828901250095816800F0F8FFD4F83E
:10248000B833E3810623237628468DE74179FEF7AA
:1024900041FA012807D005280FD0022817D00428B8
:1024A0001FD0012080E70723237600220321D4F8E0
:1024B000C80302F071F8012076E70C23237600228E
:1024C0000321D4F8C80302F067F803206CE7052362
:1024D000237600220321D4F8C80302F05DF801201E
:1024E00062E70B23237600220321D4F8C80302F00D
:1024F00053F8022058E703790022114600F0CDFF7F
:10250000D4F8B833E3810823237601204CE701791E
:10251000FEF700FA012805D004280DD0052815D0B3
:10252000012041E70D23237600220321D4F8C803BC
:1025300002F032F8002037E70B2323760022032134
:10254000D4F8C80302F028F801202DE70022032167
:10255000D4F8C80302F020F8032025E743790125C9
:1025600000950022114600F082FFD4F8B833E381D1
:102570000A232376284617E74179FEF7CBF901288D
:1025800005D002280DD0042815D001200CE70D231A
:10259000237600220321D4F8C80301F0FDFF0020B8
:1025A00002E70923237600220321D4F8C80301F0AF
:1025B000F3FF0120F8E60B23237600220321D4F851
:1025C000C80301F0E9FF0120EEE6437E0133DBB2F0
:1025D0004376022B07D9D0F8C4330621984700234D
:1025E00063760220E0E6FEF723F901202076A07052
:1025F000DAE60120D8E603780A8813440B800378D2
:10260000184470472DE9F04383B00B7803704B7882
:1026100043708B78CC7803EB042343800B790371F0
:102620004B7943718B798371CB79C3710B7A0372C8
:10263000092A48D905460923ADF806300C4600267C
:10264000012E40DC6A88BDF806309A423BD90DF174
:1026500006012046FFF7CFFF04464378042BEFD155
:10266000B1461A2000FB06F008302844214602300B
:10267000FFF740FE0027B8461A2303FB09539B7B54
:102680009F421DDA6A88BDF806309A4218D90DF1CA
:1026900006012046FFF7AFFF04464378052BEAD139
:1026A00008F101081A2000FB09F000EBC80008300F
:1026B000284421460430FFF730FE01377FB2DAE7C5
:1026C000013676B2BCE703B0BDE8F08338B5044606
:1026D0008378012B03D0022B0FD001250BE0816002
:1026E0008281012505760223837000220321D0F820
:1026F000C80301F051FF284638BDFFF738FE0546F4
:1027000020B10228F7D10122A270F4E70122A270C1
:1027100000222276EFE738B5BDF810508478012CFE
:1027200004D02A461946FFF7D1FF38BD61F07F0477
:10273000047406214174428202F47F44B4F5407F60
:1027400003D000228282C582EBE740F209428282F6
:10275000F9E7F0B583B0044600F58E750E4600919A
:102760002B464FF480720021FFF7D5FF074610B1CA
:10277000384603B0F0BD3246294604F54870FFF7ED
:102780008BFDF5E7F0B583B004460E4600F11C055D
:1027900000912B464FF400720021FFF7BCFF074663
:1027A00010B1384603B0F0BD3246294604F232304B
:1027B000FFF728FFF5E7F0B583B017461D4600F593
:1027C0008E740093234641F440720021FFF7A3FF6B
:1027D000064610B1304603B0F0BD2A4639462046C1
:1027E000FFF7ABFDF6E708B58378012B04D0002294
:1027F0001146FFF76BFF08BD0023037405224274E6
:1028000041828382C382F2E708B58378012B04D02A
:1028100000221146FFF75AFF08BD00230374092266
:10282000427441828382C382F2E708B58378012B28
:1028300004D000221146FFF749FF08BD02230374AC
:1028400001234374002343828182C382F1E710B4E1
:102850001F2300E0234621FA03F414F0010F03D1F3
:102860005C1E002BF6D12346102A13D0182A0DD057
:10287000082A13D00368596101688B6823F0180394
:102880001A438A6000205DF8044B7047062BF1D98B
:102890000120F8E7072BEDD90120F4E70F2BE9D948
:1028A0000120F0E700F1080343604FF0FF3282603F
:1028B000C360036100230360704700230361704716
:1028C00043684B609A688A609A68516099600861B1
:1028D000036801330360704730B40D68B5F1FF3F02
:1028E00002D000F1080202E0026904E01A465368CF
:1028F0001C68A542FAD253684B6099608A605160A7
:10290000086103680133036030BC704703694268A3
:10291000816891608268416851605A68904205D030
:1029200000220261186801381860704782685A6096
:10293000F6E70000494B5A6822F440325A605A6860
:1029400041680A435A600268536823F480735360F5
:1029500002685368016943EA0123536002685368BF
:1029600023F0407353600268536881680B435360DF
:102970000268936823F40063936002689368C168F7
:102980000B439360826A364B9A4249D0026893683F
:1029900023F07063936002689368816A0B439360CD
:1029A0000268936823F04053936002689368C16A99
:1029B0000B4393600268936823F0020393600268FC
:1029C0009368816943EA41039360036A002B32D123
:1029D0000268536823F4006353600268D36A23F4E7
:1029E0007003D3620168CB6AC269013A43EA0253B9
:1029F000CB620268936823F4007393600268936863
:102A0000016B43EA412393600268936823F4806377
:102A1000936002689368416943EA81239360704739
:102A20000268936823F0706393600268936823F0F0
:102A300040539360BEE70268536843F400635360F9
:102A40000268536823F46043536001684B68426A2C
:102A5000013A43EA42334B60BFE700BF0023014025
:102A60000100000F20B310B50446036C43B1236C82
:102A700013F0100F0AD00120002384F83C3010BD61
:102A8000436480F83C3001F005FBF0E7226C094B11
:102A9000134043F0020323642046FFF74BFF00205E
:102AA0006064236C23F0030343F001032364E3E732
:102AB00001207047FDEEFFFF30B482B00023019388
:102AC00090F83C30012B00F0C080012380F83C30AE
:102AD0000B68092B22D90568EA689BB203EB430314
:102AE0001E3B072404FA03F322EA0303EB600B689E
:102AF000574A93420BD00568EA688C689BB203EB97
:102B000043031E3B04FA03F31343EB601BE002682C
:102B1000D3688C6843EA0463D36014E005682A69CB
:102B20009BB203EB4303072404FA03F322EA0303F3
:102B30002B6105682A698C680B8803EB430304FA50
:102B400003F313432B614B68062B24D805686A6B8B
:102B500003EB8303053B1F2404FA03F322EA030378
:102B60006B6305686A6B4B6803EB8303053B0C885A
:102B700004FA03F313436B630268364B9A423AD06C
:102B80000268344B9A423FD0002380F83C3018460C
:102B900002B030BC70470C2B16D805682A6B03EBCB
:102BA0008303233B1F2404FA03F322EA03032B636A
:102BB00005682A6B4B6803EB8303233B0C8804FAFC
:102BC00003F313432B63D7E70568EA6A03EB830338
:102BD000413B1F2404FA03F322EA0303EB62056876
:102BE000EA6A4B6803EB8303413B0C8804FA03F366
:102BF0001343EB62C0E70B68122BC1D1164A53682E
:102C000043F480035360BBE70B68114A112B18BFD4
:102C10009342B9D1104A536843F4000353600A68E1
:102C20000B4B9A42B0D10D4B1B680D4AA2FB0323FC
:102C30009B0C03EB83035A00019202E0019B013BD2
:102C40000193019B002BF9D19EE70220A0E700BF72
:102C50001200001000200140002301400C00002061
:102C600083DE1B430268D36843F00103D36002682C
:102C7000136843F0010313600020704770477047EA
:102C80007047704710B5044603681A6912F0020FC6
:102C900011D0DA6812F0020F0DD06FF002021A6143
:102CA0000123037703689B6913F0030F79D0FFF7C3
:102CB000E6FF0023237723681A6912F0040F12D06D
:102CC000DA6812F0040F0ED06FF004021A610223CA
:102CD000237723689B6913F4407F68D02046FFF771
:102CE000CEFF0023237723681A6912F0080F12D051
:102CF000DA6812F0080F0ED06FF008021A61042390
:102D000023772368DB6913F0030F57D02046FFF7C2
:102D1000B6FF0023237723681A6912F0100F12D030
:102D2000DA6812F0100F0ED06FF010021A6108234B
:102D300023772368DB6913F4407F46D02046FFF7F2
:102D40009EFF0023237723681A6912F0010F03D036
:102D5000DA6812F0010F3FD123681A6912F0800F70
:102D600003D0DA6812F0800F3DD123681A6912F49B
:102D7000807F03D0DA6812F0800F3BD123681A6994
:102D800012F0400F03D0DA6812F0400F39D12368F7
:102D90001A6912F0200F03D0DA6812F0200F37D131
:102DA00010BDFFF76BFF2046FFF76AFF81E7204663
:102DB000FFF764FF2046FFF763FF92E72046FFF727
:102DC0005DFF2046FFF75CFFA3E72046FFF756FFB5
:102DD0002046FFF755FFB4E76FF001021A61204665
:102DE00008F0DAFEB8E76FF080021A612046FDF7BE
:102DF000AEFBBAE76FF080021A612046FDF7A7FB31
:102E0000BCE76FF040021A612046FFF73AFFBEE7C9
:102E10006FF020021A612046FDF798FBC0E7000022
:102E200070B40368474A904214BF00220122B0F1F7
:102E3000804F14BF144642F00104D4B9424DA84259
:102E400014BF00250125414EB04254D0002D52D16F
:102E500005F1804505F58235A84214BF00250125FE
:102E600006F50066B04202D00DB9002502E001254A
:102E700000E001251DB123F070034D682B43002CA9
:102E80003DD1314CA04214BF002401242F4DA84253
:102E900050D0002C4ED104F1804404F58234A0427D
:102EA00014BF0024012405F50065A84244D0002C7D
:102EB00042D1274CA04214BF0024012405F59A35C5
:102EC000A8423BD0002C39D1224CA04214BF002490
:102ED000012405F50065A84232D0002C30D11E4CEB
:102EE000A04214BF00240124A5F59635A84204D0C1
:102EF0001CB9002404E00125BCE7012400E0012402
:102F00001CB123F44073CC68234323F080034C6945
:102F1000234303608B68C3620B6883620F4B984244
:102F200008BF42F001020AB10B6903630123436148
:102F300070BC70470124E3E70124E1E70124DFE7E7
:102F40000124DDE7000001400008004000040040CB
:102F500000440140001800400020004000040140EF
:102F6000A8B110B5044690F83D305BB1022384F857
:102F70003D30211D2068FFF753FF012384F83D30C9
:102F8000002010BD80F83C3001F038F9EEE7012058
:102F9000704700207047000008B50146034803F061
:102FA000E9FD08B9012008BD002008BD84430020C8
:102FB00010B590B0044600930B4601460B4803F051
:102FC0000DFE10B9002010B010BD03AA214607481D
:102FD00003F0E2FD9DF81930282B05D03A2B03D0E1
:102FE000042B01D00120EEE70320ECE7844300200E
:102FF00010B58EB01446032924D8DFE801F002058D
:103000000E1800200EB010BD01AA0146114803F0B1
:10301000C3FDC8B9029B2360F4E701AA01460D482D
:1030200003F0BAFD90B9BDF80C302360EAE701AABD
:103030000146084803F0B0FD50B9BDF80C305B0AFA
:103040002360DFE70420DDE70120DBE70120D9E78B
:103050000120D7E78443002010B590B004460093C8
:103060000B4601460E4803F002FE10B9002010B0D6
:1030700010BD03AA21460A4803F08EFD9DF81930C1
:10308000272B0AD005D9282B01D03A2B03D10320B6
:10309000EDE7042BFBD00120E9E70220E7E700BFC2
:1030A0008443002008B513460A460146024802F050
:1030B000FFFA00B1012008BDCC51002008B513462D
:1030C0000A460146024802F07BFB00B1012008BD20
:1030D000CC51002008B5034802F045FE043818BF63
:1030E000012008BDCC51002008B50146014802F07E
:1030F000D8FD08BDCC51002082B001238DF80730E7
:103100009DF8070002B0704710B5FFF7F5FF0128E2
:1031100002D00224204610BD074802F0A9FD044653
:103120000028F7D14FF40061034802F0CCFD0028DD
:10313000F0D00124EEE700BFCC5100200D4B1B68FE
:10314000B3F1FF3F0AD04FF0500372B683F31188FA
:10315000BFF36F8FBFF34F8F62B6FEE74FF05003A0
:1031600072B683F31188BFF36F8FBFF34F8F62B6D0
:10317000FEE700BF0400002006480068006880F3F6
:10318000088862B661B6BFF34F8FBFF36F8F00DF61
:1031900000BF000008ED00E0DFF80C00016841F41A
:1031A000700101607047000088ED00E04FF080730F
:1031B00040F8043C21F0010140F8081C054B40F8A0
:1031C0000C3C40F8202C6FF0020340F8243C4438BB
:1031D000704700BF3D310008000000000000000003
:1031E000074B19680868B0E8F04F80F30988BFF30F
:1031F0006F8F4FF0000080F311887047AFF30080AD
:103200001C3D00204FF0500372B683F31188BFF3CA
:103210006F8FBFF34F8F62B60B4A13680133136091
:10322000012B0FD1094B1B6813F0FF0F0AD04FF091
:10323000500372B683F31188BFF36F8FBFF34F8FC4
:1032400062B6FEE7704700BF0400002004ED00E016
:103250000A4B1B6853B94FF0500372B683F31188C1
:10326000BFF36F8FBFF34F8F62B6FEE7013B034A98
:1032700013600BB983F31188704700BF040000206E
:10328000EFF30980BFF36F8F154B1A681EF0100F14
:1032900008BF20ED108A20E9F04F10604DF8043D82
:1032A0004FF0500072B680F31188BFF34F8FBFF319
:1032B0006F8F62B605F004FB4FF0000080F31188B9
:1032C00008BC19680868B0E8F04F1EF0100F08BF7E
:1032D000B0EC108A80F30988BFF36F8F704700BF8E
:1032E0001C3D002008B54FF0500372B683F31188DF
:1032F000BFF36F8FBFF34F8F62B605F063F918B15C
:103300004FF08052024B1A60002383F3118808BDEE
:1033100004ED00E0064B1B68064AA2FB03239B0951
:10332000013B054A13600722044B1A60704700BF37
:103330000C000020D34D621014E000E010E000E02B
:1033400000B583B0224B1A78D2B20192FF221A70D4
:103350001B78DBB28DF803309DF8033003F0500387
:103360001C4A137007221C4B1A6009E01A4A1368A2
:10337000013B13609DF803305B00DBB28DF8033036
:103380009DF8033013F0800FF0D1134A13681B022D
:1033900003F4E0631360019BDBB20D4A13700F4B23
:1033A0001A6842F470021A601A6842F070421A6099
:1033B000FFF7B0FF00220A4B1A60FFF7EDFE094A43
:1033C000136843F040431360FFF7D6FEFFF7B6FEE5
:1033D00000E400E0FC3C0020003D002020ED00E087
:1033E0000400002034EF00E0EFF305830F2B11D928
:1033F000124A9B5CDBB2124A127893420AD24FF017
:10340000500372B683F31188BFF36F8FBFF34F8FF2
:1034100062B6FEE70B4B1B6803F4E0630A4A1268CE
:1034200093420AD94FF0500372B683F31188BFF369
:103430006F8FBFF34F8F62B6FEE77047F0E300E097
:10344000FC3C00200CED00E0003D002030B585B0D4
:103450001546002403940823029301910094234607
:1034600022462946FDF73BFA204605B030BD30B56F
:1034700085B00C4619469DF8203090F81D5305B1D3
:1034800000230393029201940123009300231A4620
:10349000FDF725FA002005B030BD30B585B01D46DA
:1034A00000240394029201910122009223462946AE
:1034B000FDF715FA204605B030BD30B585B00C4695
:1034C00019469DF8203090F81D5305B10023039351
:1034D000029201940123009302230022FDF7FFF9D9
:1034E000002005B030BD30B585B01D4600240394E2
:1034F000029201910122009202232946FDF7EFF981
:10350000204605B030BD000010B5D0F87433DC693A
:103510002179FDF7B7F90D2801D0022010BDA26F67
:103520000C4B9A4201D0022010BDE26FA36D9A426B
:1035300001D0012010BD94F884302BB1012B05D0AF
:10354000022B05D0012010BD002010BD012010BDB0
:10355000022010BD5553425308B5D0F87433DB69CF
:103560001AB1012A05D0022008BDD979FFF75DF90B
:1035700008BD9979FFF759F908BD08B521220274F1
:10358000FF224274002141828182C1820A46FFF7F4
:103590009DF808BD08B5A1220274FE2242740022E3
:1035A000428282820122C282FFF790F808BD0000A9
:1035B000D0F87433DB69054A5A65054A9A650122D9
:1035C00083F8502083F8522000207047555342431F
:1035D0005040302070B582B00546D0F87433DC69B5
:1035E00094F85030013B0A2B00F25B81DFE813F0C6
:1035F0000B001B0054005F009700A300E900F400DB
:103600001B012D014F0184F86110022384F8503012
:103610006379012600961F2204F15401FFF74DFF44
:10362000304602B070BD6179FDF774F9012805D00C
:1036300002281CD0052824D00126F1E7E36D5BB1F8
:1036400094F96030002B03DB052384F8503006E04A
:10365000032384F8503002E0072384F8503000221E
:103660000221D5F8C80300F097FF0126D8E701260C
:1036700084F8506000220221D5F8C80300F08CFFC6
:10368000CEE70A2384F8503000220221D5F8C8037F
:1036900000F082FF0126C3E723796289D4F88C10F9
:1036A000FFF721FF042384F850300126B8E7217981
:1036B000FDF730F9012803D0052825D00126AFE712
:1036C000E36D6289934211D9D4F88C101144C4F887
:1036D0008C109B1AE365E36D5BB123796289D4F8A2
:1036E0008C102846FFF7FFFE012699E70023E365CB
:1036F000F1E7072384F8503000220221D5F8C803EF
:1037000000F04AFF01268BE7092384F8503000229D
:103710000221D5F8C80300F03FFF012680E7637956
:103720002289D4F88C1001260096FFF7C6FE0623E6
:1037300084F8503074E76179FDF7ECF8012805D082
:10374000022828D0052831D0012669E7E36D2289B7
:10375000934213D9D4F88C101144C4F88C109B1ADE
:10376000E365E36D6BB9072384F850300022022132
:10377000D5F8C80300F010FF012651E70023E365E8
:10378000EFE763792289D4F88C1001200090284655
:10379000FFF793FEEAE7052384F850300022022168
:1037A000D5F8C80300F0F8FE012639E70A2384F8AB
:1037B000503000220221D5F8C80300F0EDFE0126AA
:1037C0002EE723790D2204F17801FFF78CFE082300
:1037D00084F85030012623E72179FDF79BF8012872
:1037E00003D0052814D001261AE7012384F85030AD
:1037F00084F852302846FFF787FE38B102260022AF
:103800000221D5F8C80300F0C7FE09E70026F6E755
:10381000092384F8503000220221D5F8C80300F0B3
:10382000BBFE0126FCE60022FFF796FE18B1042835
:1038300006D00126F4E6072384F850300126EFE68F
:103840000B2384F850300126EAE60122FFF784FEBC
:1038500018B1042816D00126E2E661792846FDF762
:103860007EF8C0F10102D2B261792846FDF75EF818
:10387000002221792846FDF759F8092384F85030B1
:103880000126CDE60B2384F850300126C8E6FFF769
:1038900074FE064600287FF4C3AE012384F850303E
:1038A000BEE60126BCE600230A2B0CD803F1DE029B
:1038B00000EB8202526812F4004F02D00133DBB2F7
:1038C000F2E798B270474FF6FF70704710B584B0BA
:1038D000BDF8204002949DF81C4001949DF81840CA
:1038E0000094FCF7D5FF002004B010BD08B5FCF72C
:1038F000E8FF002008BD38B504460D46FFF7D3FFAA
:103900004FF6FF73984206D045F4004500F1DE0300
:1039100004EB83046560C0B238BD0A2906D8DE31E5
:1039200000EB81014B68C3F30E034B60002070472E
:103930000C4B1B680C4AA2FB03235A0A41F2883342
:1039400003FB02F35A1E4BB1416B134611F0800F7B
:10395000F8D040F2FF538363002070474FF00040DF
:10396000704700BF0C000020D34D6210144B1B6841
:10397000144AA2FB03235A0A41F2883303FB02F3E1
:103980005A1ECBB1416B134611F0450FF8D0436B73
:1039900013F0040F03D00423836318467047436B6E
:1039A00013F0010F04D140F2FF53836300207047EE
:1039B00001238363184670474FF00040704700BFF3
:1039C0000C000020D34D6210104B1B68104AA2FB64
:1039D00003235A0A41F2883303FB02F35A1E8BB1C8
:1039E000416B134611F0450FF8D0436B13F0040FF1
:1039F00003D0042383631846704740F2FF53836368
:103A0000002070474FF00040704700BF0C000020BE
:103A1000D34D6210124B1B68124AA2FB03235A0AB1
:103A200041F2883303FB02F35A1EA3B1416B1346E4
:103A300011F0450FF8D0436B13F0040F03D040236F
:103A4000836304207047436B13F0400F06D040237C
:103A50008363002070474FF000407047002070479C
:103A60000C000020D34D621084B010B402AC84E886
:103A70000E00039A0B461343049A1343059A13430B
:103A8000069A1343079A13434168044A0A401343B2
:103A9000436000205DF8044B04B070470081FFFFD5
:103AA000D0F880007047032303600020704700684F
:103AB00000F00300704700000B6883604B688A6861
:103AC0001343CA6813430A691343C168024A0A4090
:103AD0001343C3600020704700F0FFFF0069C0B2CD
:103AE000704782B000230193143001440191019B7F
:103AF000186802B07047000038B5524B1B68524C32
:103B0000A4FB03435B0A02FB03F2531E002A63D0AB
:103B1000446B1A4614F0450FF7D0436B13F0040FB3
:103B200003D004238363184638BD436B13F0010FA1
:103B300003D001238363184638BD0D460446FFF7C2
:103B4000CDFFA84201D0012038BD40F2FF53A3634E
:103B500000212046FFF7C5FF3C4B0340002B3ED021
:103B600000283EDB10F0804F01D0402038BD10F01F
:103B7000005F01D0802038BD10F0805F34D110F09C
:103B8000006F34D110F0806F34D110F0807F34D1C9
:103B900010F4000F34D110F4800F34D110F4001F52
:103BA00034D110F4801F34D110F4802F34D110F4AC
:103BB000003F34D110F4803F34D110F4004F34D1A1
:103BC00010F4804F34D110F4005F34D110F0080F9E
:103BD00034D04FF4000038BD4FF0004038BD002015
:103BE00038BD4FF0007038BD4FF4807038BD4FF4D1
:103BF000007038BD4FF4806038BD4FF4006038BDB0
:103C00004FF4805038BD4FF4005038BD4FF4804021
:103C100038BD4FF4004038BD4FF4003038BD4FF48C
:103C2000802038BD4FF4002038BD4FF4801038BDDF
:103C30004FF4001038BD4FF4800038BD4FF4803091
:103C400038BD00BF0C000020D34D621008E0FFFD1E
:103C500070B5254B1B68254CA4FB03435C0A41F25D
:103C6000883303FB04F35C1E002B37D0456B2346DF
:103C700015F0450FF7D0436B13F0040F03D0042366
:103C80008363184670BD436B13F0010F03D001230B
:103C90008363184670BD16460D460446FFF71EFFA7
:103CA000A84201D0012070BD40F2FF53A363002160
:103CB0002046FFF716FF10F4604F05D010F4804F38
:103CC00006D04FF4005070BD000C3080002070BD55
:103CD00010F4004F05D04FF4805070BD4FF00040FD
:103CE00070BD4FF4803070BD0C000020D34D6210C9
:103CF0000B6843624B6883628B68CA6813430A6926
:103D000013434A691343C26A22F0F7021343C362A2
:103D10000020704730B587B0054601911024029409
:103D200040230393002304934FF48063059301A978
:103D3000FFF7C2FE41F2883221462846FFF7DCFE3B
:103D400007B030BD30B587B005460191112402940B
:103D500040230393002304934FF48063059301A948
:103D6000FFF7AAFE41F2883221462846FFF7C4FE3B
:103D700007B030BD30B587B00546019112240294DA
:103D800040230393002304934FF48063059301A918
:103D9000FFF792FE41F2883221462846FFF7ACFE3B
:103DA00007B030BD30B587B00546019118240294A4
:103DB00040230393002304934FF48063059301A9E8
:103DC000FFF77AFE41F2883221462846FFF794FE3B
:103DD00007B030BD30B587B0054601911924029473
:103DE00040230393002304934FF48063059301A9B8
:103DF000FFF762FE41F2883221462846FFF77CFE3B
:103E000007B030BD30B587B00546002301930C24C0
:103E100002944022039204934FF48063059301A916
:103E2000FFF74AFE034A21462846FFF765FE07B022
:103E300030BD00BF00E1F50530B587B00546019201
:103E40000724029440230393002304934FF48063D8
:103E5000059301A9FFF730FE41F28832214628463A
:103E6000FFF74AFE07B030BD10B586B00446002308
:103E700001930293039304934FF48063059301A984
:103E8000FFF71AFE2046FFF753FD06B010BD10B530
:103E900086B004464FF4D573019308230293402360
:103EA0000393002304934FF48063059301A9FFF764
:103EB00003FE2046FFF7AEFD06B010BD30B587B05B
:103EC0000546019137240294402303930023049371
:103ED0004FF48063059301A9FFF7EEFD41F28832AC
:103EE00021462846FFF708FE07B030BD10B586B062
:103EF00004460A4B0B430193292302934023039367
:103F0000002304934FF48063059301A9FFF7D4FDC8
:103F10002046FFF759FD06B010BD00BF000010801D
:103F200030B587B0054601910624029440230393DF
:103F3000002304934FF48063059301A9FFF7BCFDB0
:103F400041F2883221462846FFF7D6FD07B030BD42
:103F500030B587B0054600230193332402944022F4
:103F6000039204934FF48063059301A9FFF7A4FD26
:103F700041F2883221462846FFF7BEFD07B030BD2A
:103F800010B586B004460023019302220292C0229B
:103F9000039204934FF48063059301A9FFF78CFD0E
:103FA0002046FFF7E3FC06B010BD10B586B004460E
:103FB000019109230293C0230393002304934FF438
:103FC0008063059301A9FFF777FD2046FFF7CEFC3C
:103FD00006B010BD70B586B005460E4600230193AD
:103FE000032402944022039204934FF480630593C8
:103FF00001A9FFF761FD324621462846FFF728FE5A
:1040000006B070BD30B587B0054601910D2402940D
:1040100040230393002304934FF48063059301A985
:10402000FFF74AFD41F2883221462846FFF764FD3A
:1040300007B030BD08B50320FCF7FAFA002211469C
:104040006FF00B00FCF706FB002211466FF00A0030
:10405000FCF700FB002211466FF00900FCF7FAFAAA
:10406000002211466FF00400FCF7F4FA002211461A
:104070006FF00300FCF7EEFA00220F216FF0010051
:10408000FCF7E8FA00220F214FF0FF30FCF7E2FACC
:1040900008BD00000268134B9A4200D0704730B54B
:1040A00087B003F58B335A6C42F480625A645B6CC0
:1040B00003F480630093009B4FF4F863019303259E
:1040C00002950024039401A9074805F005FA01238D
:1040D00001930295039401A9044805F0FDF907B086
:1040E00030BD00BF00220140001402400000024029
:1040F0000268094B9A4200D0704782B003F5006312
:104100001A6B42F480521A631B6B03F480530193C1
:10411000019B02B0F0E700BF003002400268094B8B
:104120009A4200D0704782B0A3F5F0431A6B42F474
:1041300000021A631B6B03F400030193019B02B09E
:10414000F0E700BF00B002400268084B9A4200D07E
:10415000704782B0064B5A6B42F040025A635B6B69
:1041600003F040030193019B02B0F1E70008065001
:10417000003802400268054B9A4200D07047044A5A
:10418000136F43F400431367F8E700BF00280040B3
:10419000003802400268164B9A4200D07047F0B5D2
:1041A00087B003F586335A6C42F400625A645B6C44
:1041B00003F400630093009B4FF4F853019302272C
:1041C000029700260396032504950C24059401A963
:1041D000084805F081F9042301930297039604959A
:1041E00005940DEB0301044805F076F907B0F0BD26
:1041F000002C014000080240000C02400268094BFC
:104200009A4200D0704782B003F574435A6C42F46E
:1042100000325A645B6C03F400330193019B02B0DB
:10422000F0E700BF00440140F0B589B004460368E0
:10423000454A934204D0454A934248D009B0F0BD64
:10424000434B5A6C42F010025A645B6C03F010034B
:104250000193019B80230393022704970025059572
:1042600006950726079603A93A4805F035F94FF455
:1042700000730393049705950695079603A936489E
:1042800005F02AF93548364B03604FF00063436070
:104290008560C5604FF48063036145618561C561D8
:1042A00005624562FDF720FE58B92C4B63669C639E
:1042B000002205212520FCF7CDF92520FCF7FAF98D
:1042C000BCE74FF4E071274807F072FCEDE7204BA4
:1042D0005A6C42F020025A645B6C03F02003029394
:1042E000029BC02303930223049300250595032317
:1042F00006930823079303A91B4805F0EDF81B4814
:104300001B4B03604FF0206343608560C5604FF432
:104310008063036145618561C56105624562FDF7A2
:10432000E3FD58B9114B63669C63002205214720C9
:10433000FCF790F94720FCF7BDF97FE740F2ED115B
:10434000084807F035FCEDE700100140001401407B
:104350000038024000040240000002409852002051
:104360004064024048CA000800080240085100208A
:104370002864024008B50122064B1A70FEF7AAFE17
:1043800020B9044A137803F0FE031370014B187828
:1043900008BD00BF0800002010B582B0044601220D
:1043A000114B1A7000F0C4F818B90F4B187802B00E
:1043B00010BDFEF7A9FE80B10B4B1B78DBB2012BC1
:1043C000F3D00A4A92E803008DE803000021684612
:1043D00000F0DBF8064B1860E7E72046FFF7CAFF5E
:1043E000014B1870E8E700BF08000020F8C900087A
:1043F000043D002008B5FFF7BDFF08BD10B584B02F
:10440000084611461A46FEF74DFE10B1012004B0D1
:1044100010BD47F23052104B196801A800F0F0F8B7
:10442000019B102B01D00120F1E7029B012B01D051
:104430000120ECE700F085F847F23054044400F026
:1044400080F8844205D9FEF745FE0028F7D1002008
:10445000DDE70120DBE700BF043D002010B584B09C
:10446000084611461A46FEF729FE10B1012004B095
:1044700010BD47F23052104B196801A800F0C0F887
:10448000019B102B01D00120F1E7029B022B01D0F0
:104490000120ECE700F055F847F23054044400F0F6
:1044A00050F8844205D9FEF715FE0028F7D1002008
:1044B000DDE70120DBE700BF043D0020154B1B7842
:1044C00013F0010F01D00320704710B588B01446D7
:1044D00003291CD8DFE801F002050C13002008B006
:1044E00010BD6846FEF700FE069B23600020F6E73D
:1044F0006846FEF7F9FD079B23800020EFE768463A
:10450000FEF7F2FD079B5B0A23600020E7E704202B
:10451000E5E700BF08000020842801D00330704781
:1045200000207047EFF30580003018BF012070476E
:1045300008B504F0D9FA012801D0012008BD0020F7
:1045400008BD08B5FFF7EEFF10B904F02DF808BD5F
:1045500004F030F808BDF0B585B00F464468056832
:104560000669B0F90800FFF7D7FF03AB019300908D
:104570003B46B2B22946204603F09AFF012802D1F9
:10458000039805B0F0BD0020FBE708B500224168A4
:10459000006800F07DF908BD30B585B00446019192
:1045A00000230393154602B90125FFF7BBFFA8B10D
:1045B000002303AA01A9204600F05CFA012801D0DB
:1045C000FF2014E0039BA3B14FF080520B4B1A6005
:1045D000BFF34F8FBFF36F8F002008E000232A4600
:1045E00001A9204600F07AF9012804D0FF2005B087
:1045F00030BD0020FBE70020F9E700BF04ED00E03C
:1046000070B584B00446029100230193F9B10D46C0
:10461000164600230393B2F1FF3F21D002B91E4694
:10462000FFF780FF10B303AA01A9284600F078FB2A
:10463000012818D000230093039B13B34FF080523E
:10464000164B1A60BFF34F8FBFF36F8F19E004ABA7
:10465000802243F8102D93E8070084E8070014E057
:104660004FF0FF36DCE710230093E5E700233246E6
:1046700001A9284600F076FA012809D05EB9002386
:1046800000939DE8070084E80700204604B070BD51
:1046900010230093F5E74023F2E700BF04ED00E0AC
:1046A00008B504F021FA012801D0FEF71BFE08BD71
:1046B00010B50446FEF7A6FDA26BE36B9A4204D048
:1046C0000024FEF7C5FD204610BD0124F9E710B512
:1046D0000446FEF797FDA36B23B10024FEF7B8FD57
:1046E000204610BD0124F9E770B504461646856BD7
:1046F000026C4AB9036853BB406804F057FA0023C0
:1047000063600135A56370BD6EB9806807F0B0FCC9
:10471000226CA3681344A3606268934219D3236890
:10472000A3600020EDE7C06807F0A2FC236C5B42A9
:10473000E2681A44E26021688A4202D26268134445
:10474000E360022E07D145B1013D0020D9E70020EA
:10475000D7E70020D5E70020D3E70020D1E7026C9F
:1047600072B110B50346C4681444C4604068844202
:1047700001D31868D8600846D96807F079FC10BDE5
:10478000704738B50546FEF73DFD95F8454064B2E3
:1047900001E0013C64B2002C0ADD6B6A43B105F113
:1047A000240004F0F7F80028F3D004F097F9F0E7BC
:1047B000FF2385F84530FEF74BFDFEF723FD95F806
:1047C000444064B201E0013C64B2002C0ADD2B6974
:1047D00043B105F1100004F0DDF80028F3D004F037
:1047E0007DF9F0E7FF2385F84430FEF731FD38BD51
:1047F00038B530B304460D46FEF704FD2168E26B80
:10480000236C03FB021060600020A063A160013AEA
:1048100002FB0313E360FF2384F8443084F845303F
:10482000D5B9236903B304F1100004F0B3F8D8B18B
:104830004FF080520E4B1A60BFF34F8FBFF36F8F54
:1048400012E04FF0500372B683F31188BFF36F8FFD
:10485000BFF34F8F62B6FEE704F11000FEF722F8B7
:1048600004F12400FEF71EF8FEF7F2FC012038BD2B
:1048700004ED00E010B5029B0C4639B11A60D86314
:104880001C6401211846FFF7B3FF10BD1B60F6E75B
:1048900050B94FF0500372B683F31188BFF36F8F96
:1048A000BFF34F8F62B6FEE7F0B583B0054611B196
:1048B00001FB00F000E0002017460C464830FCF7F2
:1048C000C5F8064638B100903B4600F14802214643
:1048D0002846FFF7CFFF304603B0F0BDF0B585B0F6
:1048E000019270B10446B9B10125DDB94FF0500312
:1048F00072B683F31188BFF36F8FBFF34F8F62B629
:10490000FEE74FF0500372B683F31188BFF36F8F49
:10491000BFF34F8F62B6FEE7026C0AB90125E4E7E8
:104920000025E2E7022B0BD07DB94FF0500372B6A1
:1049300083F31188BFF36F8FBFF34F8F62B6FEE72B
:10494000E26B012AF0D00025EEE71E460F4604F088
:10495000CBF810B9019B03B1002555B94FF05003B6
:1049600072B683F31188BFF36F8FBFF34F8F62B6B8
:10497000FEE700252CE0324639462046FFF7B4FE1C
:10498000636A8BB104F1240004F004F838B14FF0ED
:104990008052374B1A60BFF34F8FBFF36F8FFEF714
:1049A00057FC012005B0F0BD0028F8D04FF0805230
:1049B0002F4B1A60BFF34F8FBFF36F8FEFE7FEF7F8
:1049C00047FC0020EEE72046FFF7DBFE03F08CFEFD
:1049D000FEF718FCA26BE36B9A42CCD3022ECAD02E
:1049E000019B002BEBD01DB902A804F01BF8012598
:1049F000FEF72EFC03F0D0FDFEF704FC94F84430E3
:104A00005BB2B3F1FF3F02D1002384F8443094F845
:104A100045305BB2B3F1FF3F02D1002384F845304B
:104A2000FEF716FC01A902A804F014F8C8B9204644
:104A3000FFF73EFE0028C6D0019904F1100003F0F4
:104A40008FFF2046FFF79DFE03F04EFE0028BFD1EA
:104A50004FF08052064B1A60BFF34F8FBFF36F8F3A
:104A6000B6E72046FFF78DFE03F03EFE002099E7F3
:104A700004ED00E02DE9F84370B10446B9B101201E
:104A8000D8B94FF0500372B683F31188BFF36F8F1C
:104A9000BFF34F8F62B6FEE74FF0500372B683F359
:104AA0001188BFF36F8FBFF34F8F62B6FEE7006CC4
:104AB00008B90120E4E70020E2E7022B0BD078B927
:104AC0004FF0500372B683F31188BFF36F8FBFF3BB
:104AD0004F8F62B6FEE7E56B012DF0D00020EEE7C8
:104AE0001F4690468946FEF77FFCEFF311864FF094
:104AF000500372B683F31188BFF36F8FBFF34F8FEC
:104B000062B6A26BE36B9A4201D3022F21D194F8D3
:104B100045506DB23A4649462046FFF7E5FDB5F1EE
:104B2000FF3F10D1636AB3B104F1240003F032FFF8
:104B300098B1B8F1000F12D00120C8F8000086F338
:104B40001188BDE8F8836B1C5BB284F84530012006
:104B5000F5E70020F3E70120F1E70120EFE701206E
:104B6000EDE700002DE9F04184B0019270B10446F8
:104B7000B9B10125DDB94FF0500372B683F3118846
:104B8000BFF36F8FBFF34F8F62B6FEE74FF0500356
:104B900072B683F31188BFF36F8FBFF34F8F62B686
:104BA000FEE7026C0AB90125E4E70025E2E71F46AB
:104BB000884603F099FF10B9019B03B1002555B950
:104BC0004FF0500372B683F31188BFF36F8FBFF3BA
:104BD0004F8F62B6FEE700265DE0E668414620465C
:104BE000FFF7BDFDDFB9013DA563236813B904F0EC
:104BF0003BF86060236963B104F1100003F0CAFE62
:104C000038B14FF08052454B1A60BFF34F8FBFF35E
:104C10006F8FFEF71DFB012004B0BDE8F081E66058
:104C2000636A002BF5D004F1240003F0B3FE0028E2
:104C3000EFD04FF08052394B1A60BFF34F8FBFF364
:104C40006F8FE6E7FEF704FB0020E5E702A803F01C
:104C5000E9FE012629E0002384F8443031E00023F6
:104C600084F8453033E0FEF7CDFA606803F04CFF7E
:104C7000FEF7EEFA3BE02046FFF783FD03F034FD3C
:104C800009E02046FFF77DFD03F02EFD2046FFF7EB
:104C90001EFD002840D1FEF7B5FAA56B002D9CD172
:104CA000019B002BCED0002ED0D0FEF7D1FA03F01E
:104CB00073FCFEF7A7FA94F844305BB2B3F1FF3F00
:104CC000C9D094F845305BB2B3F1FF3FC7D0FEF7CF
:104CD000BFFA01A902A803F0BDFE0028D1D12046E9
:104CE000FFF7F5FC0028C6D02368002BBBD0019944
:104CF00004F1240003F034FE2046FFF742FD03F0E8
:104D0000F3FC0028C7D14FF08052044B1A60BFF368
:104D10004F8FBFF36F8FBEE700207DE704ED00E00B
:104D20002DE9F84370B10446B9B10123DBB94FF066
:104D3000500372B683F31188BFF36F8FBFF34F8FA9
:104D400062B6FEE74FF0500372B683F31188BFF3EB
:104D50006F8FBFF34F8F62B6FEE7036C0BB9012371
:104D6000E4E70023E2E717468946FEF73DFBEFF351
:104D700011864FF0500372B683F31188BFF36F8F23
:104D8000BFF34F8F62B6D4F83880B8F1000F20D04F
:104D900094F844506DB249462046FFF7E0FC08F114
:104DA000FF33A363B5F1FF3F0DD123699BB104F13C
:104DB000100003F0EFFD80B18FB10120386086F361
:104DC0001188BDE8F8836B1C5BB284F84430012085
:104DD000F5E70020F3E70120F1E70120EFE70120EC
:104DE000EDE7000004290CD0052902D0022904D0E7
:104DF00070470322054B1A7070470222034B1A704A
:104E000070470122014B1A70F2E700BF083D0020F5
:104E100010B5074C01220749204602F075F80649F3
:104E2000204602F0A5F8204602F0E6F810BD00BFCB
:104E300084430020E54D000810000020F0B583B049
:104E40000446036813F0010F0CD0AF4B9A6822F4AC
:104E500000029A609A68416B0A439A60436BC3B13F
:104E6000002700E00027236813F4002F15D0A64A7E
:104E7000D2F88C3023F44013E16B0B43C2F88C3032
:104E8000E36BB3F5801F06D0002B00F01B810025DB
:104E900004E00127E7E70127F6E70025236813F47C
:104EA000801F0FD0984AD2F88C3023F44003216C35
:104EB0000B43C2F88C30236CB3F5800F00F00481F3
:104EC00003B90125236813F0807F00D0012713F078
:104ED000200F40F0FB80236813F0100F0CD08A4B9A
:104EE000D3F88C2022F08072C3F88C20D3F88C2069
:104EF000A16B0A43C3F88C20236813F4804F08D0B9
:104F0000814AD2F8903023F44033616E0B43C2F8EB
:104F10009030236813F4004F08D07B4AD2F89030C9
:104F200023F44023A16E0B43C2F89030236813F49E
:104F3000803F08D0744AD2F8903023F44013E16ED9
:104F40000B43C2F89030236813F4003F08D06E4A38
:104F5000D2F8903023F44003216F0B43C2F8903015
:104F6000236813F0400F08D0674AD2F8903023F03E
:104F70000303616C0B43C2F89030236813F0800F79
:104F800008D0614AD2F8903023F00C03A16C0B4397
:104F9000C2F89030236813F4807F08D05A4AD2F8C0
:104FA000903023F03003E16C0B43C2F8903023685B
:104FB00013F4007F08D0544AD2F8903023F0C00395
:104FC000216D0B43C2F89030236813F4806F08D032
:104FD0004D4AD2F8903023F44073616D0B43C2F810
:104FE0009030236813F4006F08D0474AD2F890300D
:104FF00023F44063A16D0B43C2F89030236813F48F
:10500000805F08D0404AD2F8903023F44053E16DDD
:105010000B43C2F89030236813F4005F08D03A4A7B
:10502000D2F8903023F44043216E0B43C2F8903005
:10503000236813F4800F08D0334AD2F8903023F05D
:105040008063A16F0B43C2F89030236813F4001FF4
:105050000DD02D4AD2F8903023F00063E16F0B435E
:10506000C2F89030E36FB3F1006F00F099802368CD
:1050700013F0080F00D0012513F4802F08D0224A26
:10508000D2F8903023F04073616F0B43C2F8903038
:10509000236813F4000F09D01B4AD2F8903023F094
:1050A0008053D4F880100B43C2F89030002F79D190
:1050B0002368B3F1007F75D0002D40F007810020F8
:1050C00003B0F0BD0125E9E60127F9E60E4B1A6CA5
:1050D00042F080521A641B6C03F080530193019BD1
:1050E0000A4A136843F480731360FBF749FA0646D3
:1050F000064B1B6813F4807F0AD1FBF741FA801B33
:105100006428F5D90320DBE7003802400070004036
:10511000B34B1B6F13F4407315D0226B02F4407233
:10512000934210D0AE4B1A6F22F44072196F41F4C3
:1051300080311967196F21F4803119671A671B6F65
:1051400013F0010F12D1236B03F44072B2F5407FCC
:105150001DD0A34A936823F4F8139360A0490B6F02
:10516000226BC2F30B0213430B67B4E6FBF708FA9A
:1051700006469B4B1B6F13F0020FE4D1FBF700FABE
:10518000801B41F288339842F3D9032098E7944872
:10519000826822F4F812934919400A438260DDE7DD
:1051A000012564E78E4A136823F080631360FBF7E0
:1051B000E7F906468A4B1B6813F0006F06D0FBF731
:1051C000DFF9801B6428F5D9032079E7236813F001
:1051D000010F13D0636B8BB9814AD2F88430D2F8B7
:1051E0008410606803F4403343EA801301F0706177
:1051F0000B43A16843EA0173C2F88430236813F4B7
:10520000002F03D0E26BB2F5801F43D013F4801F50
:1052100003D0236CB3F5800F3CD0236813F0807F5C
:1052200011D06F4AD2F88400D2F8841066682369DE
:105230001B0443EA861300F07060034301F0E04171
:105240000B43C2F88430236813F0007F0DD06268EE
:1052500023691B0443EA8213E26843EA0263A268FB
:1052600043EA02735E4AC2F884305D4A136843F031
:1052700080631360FBF784F90646594B1B6813F0F3
:10528000006F7FF419AFFBF77BF9801B6428F4D91A
:10529000032015E7524AD2F88430D2F884106068AF
:1052A00003F4403343EA8013E06843EA006301F00B
:1052B000E0410B43C2F88430D2F88C3023F01F0356
:1052C000616A01390B43C2F88C30A6E7444A13687F
:1052D00023F080531360FBF753F90546404B1B68DE
:1052E00013F0005F06D0FBF74BF9401B6428F5D99B
:1052F0000320E5E6236813F4002F01D0E26B22B10E
:1053000013F4801F1DD0236CDBB9354AD2F88830E6
:10531000D2F88810606903F4403343EA8013A0692F
:1053200043EA006301F0E0410B43C2F88830D2F851
:105330008C3023F4F853A16A013943EA0123C2F8FF
:105340008C30236813F4001F03D0E36FB3F1006FB8
:1053500031D0236813F0080F19D0214AD2F88810F1
:10536000D2F88830606903F4403343EA801301F0D7
:1053700070610B43E16943EA0173C2F88830D2F8E7
:105380008C3023F44033E16A0B43C2F88C30144A6A
:10539000136843F080531360FBF7F2F80446104B98
:1053A0001B6813F0005F19D1FBF7EAF8001B6428B3
:1053B000F5D9032084E60A4AD2F88800D2F888108A
:1053C0006569236A1B0443EA851300F07060034398
:1053D00001F0E0410B43C2F88830BAE700206FE6E5
:1053E00000380240FFFCFF0F836B1A68D36B43F455
:1053F0008073D363704770B582B004460023019375
:105400000068FEF731FD054610B1284602B070BDB8
:105410002068FEF73CFD0646F8B10023A364284649
:10542000C0B9019B5A1C01924FF6FF72934240D0C3
:1054300000212068FEF742FD00283DD100212068B0
:10544000FEF754FD00283AD100212068FEF749FB01
:10545000C00FE5E700236364D7E70123A364034695
:10546000E0B9019B5A1C01924FF6FF72934229D07A
:1054700000212068FEF722FD05460028C5D14FF027
:1054800080412068FEF732FD05460028BDD100218D
:105490002068FEF726FB0346C00FE1E713F0804FBC
:1054A00003D1002363643546AFE7012363643546C7
:1054B000ABE74FF08075A8E74FF08055A5E74FF0B8
:1054C0008055A2E74FF080759FE72DE9F04188B045
:1054D00004460F46FBF754F8064600230093019359
:1054E00008212068FEF716FC054618B1284608B0CA
:1054F000BDE8F081216D09042068FEF7DFFC054658
:105500000028F3D14FF0FF33029308230393302395
:10551000049302230593002306930123079302A912
:105520002068FEF7E5FB2068FEF712FD054600281F
:10553000DCD1804605E0FBF723F8801BB0F1FF3F8C
:1055400043D02068426B40F22A431A420AD1436B8F
:1055500013F4001FEFD0FEF7A3FA4DF8280008F16E
:105560000108E8E7436B13F0080F02D008258563B4
:10557000BCE7436B13F0020F02D002258563B5E749
:10558000436B13F0200F02D020258563AEE740F275
:10559000FF538363009A130203F47F0343EA026319
:1055A000110A01F47F410B4343EA12637B60019AC5
:1055B000130203F47F0343EA0263110A01F47F41FB
:1055C0000B4343EA12633B6090E74FF000458DE7E1
:1055D00010B582B004460021009101910068FEF7E9
:1055E00080FA10F0007F04D04FF40063184602B038
:1055F00010BD69462046FFF768FF03460028F5D135
:10560000019B13F4802F02D14FF08063EEE7216DF0
:1056100009042068FEF752FC03460028E6D1022167
:105620002068FEF77DFC0346E0E710B582B0044633
:105630000021009101910068FEF753FA10F0007FFD
:1056400004D04FF40063184602B010BD69462046EE
:10565000FFF73BFF03460028F5D1019B13F4803F81
:1056600002D14FF08063EEE7216D09042068FEF758
:1056700025FC03460028E6D100212068FEF750FCF7
:105680000346E0E770B571B10D460446016D0904AB
:105690000068FEF7B7FC064638B900212068FEF71F
:1056A00020FA286001E04FF00066304670BD00002F
:1056B000F0B587B0044651B115461E460A4690F82B
:1056C0003430DBB2012B08D0022007B0F0BD836B71
:1056D00043F0006383630120F7E700238363AB1982
:1056E000C16D8B4205D9836B43F000738363012046
:1056F000EBE7032380F8343003680021D9620068A7
:10570000C36B43F49573C363E36B2B48D863E36BBC
:105710002A48D864E36B196521687702BB08803199
:10572000E06BFCF77CFC2268D36A43F00803D36289
:10573000636C012B00D06D024FF0FF330093019793
:1057400090230293022303930023049301230593E0
:1057500069462068FEF7CCFA4FF400712068FEF726
:10576000D9FA034698B9012E1CD98223236329460E
:105770002068FEF7FFFAE0B1236840F2FF529A6317
:10578000A36B1843A063012084F834009DE72268CE
:1057900040F2FF519163A26B1343A363012084F88D
:1057A000340092E78123236329462068FEF7CAFA72
:1057B000E1E7002089E700BFD55800088D5D0008AB
:1057C000F0B587B0044651B115461E460F4690F815
:1057D0003430DBB2012B08D0022007B0F0BD836B60
:1057E00043F0006383630120F7E700238363931989
:1057F000C26D934231D8032380F83430036800220D
:10580000DA620168CB6B43F01A03CB63036C2E4959
:10581000D963036C2D49D964036C1A65436C012B61
:1058200000D06D024FF400712068FEF773FA034652
:10583000C8B9012E22D9A023236329462068FEF788
:10584000C9FA10B3236840F2FF529A63A36B18435E
:10585000A063012084F83400BFE7836B43F000733A
:1058600083630120B9E7226840F2FF519163A26B84
:105870001343A363012084F83400AEE7902323632D
:1058800029462068FEF78EFADBE72268D36A43F0E8
:105890000803D36222687602B30880323946206C4E
:1058A000FCF7BDFB4FF0FF3300930196902302936A
:1058B0000025039504950123059369462068FEF7AA
:1058C00017FA284689E700BFE95300088D5D0008F4
:1058D0007047704710B5846B236B822B0FD0226802
:1058E000D36A23F00803D362236840F2FF529A631D
:1058F000012384F834302046FFF7EAFF10BD20680A
:10590000FEF780FA03460028E9D0A26B1343A36395
:105910002046FFF7DEFFE2E730B4436E9A0F0A70CD
:10592000C3F383624A70C3F301638B7090F86630EF
:10593000CB7090F865300B7190F864304B7190F833
:105940006B301B01CB80B0F86A20CB889BB2C2F3CE
:1059500003142343CB8002F00F020A7290F86930DF
:10596000DA094A72C3F380128A72C3F34012CA7210
:10597000C3F300120A7300224A73426C002A40F0FB
:1059800092809B0203F440630B61836E0A699B0063
:1059900003F47F7313430B61C36E0A6942EA937287
:1059A0000A61C3F3C2620A75C3F302634B75C26E28
:1059B000C2F30743C2F342548C75C2F38242CA75E4
:1059C0005B0003F006030B76C26EC2F307230C7E66
:1059D000C2F3C03222430A760A69013242650C7E64
:1059E000023402FA04F444650A7AD5B20122AA40CC
:1059F0008265520A02FB04F2C2654FF4007202662D
:105A0000C3F380124A765B0003F07E038B76C36E8D
:105A10008A7EC3F3C01422438A7603F07F03CB76D9
:105A2000036F1A0EDC0F0C77C3F341744C77C3F38A
:105A300082638B77930003F00C03CB77036FCA7FED
:105A4000C3F381542243CA77C3F3405281F8202024
:105A5000002281F82120C3F3004381F82230036F34
:105A6000C3F3C03481F82340C3F3803481F8244069
:105A7000C3F3403481F82540C3F3003481F8264055
:105A8000C3F3812481F82740C3F3012381F8283030
:105A9000036FC3F3460381F82930012381F82A30CC
:105AA000104630BC7047012A0CD0036840F2FF5208
:105AB0009A63836B43F080538363012280F8342020
:105AC0001046EEE7836E1B0403F47C130B6190F821
:105AD0006F200B6943EA02230B610A6990F86E306C
